{
  "_format": "hh-sol-artifact-1",
  "contractName": "CeloNFT",
  "sourceName": "contracts/CeloNFT.sol",
  "abi": [
    {
      "inputs": [],
      "stateMutability": "nonpayable",
      "type": "constructor"
    },
    {
      "anonymous": false,
      "inputs": [
        {
          "indexed": true,
          "internalType": "address",
          "name": "owner",
          "type": "address"
        },
        {
          "indexed": true,
          "internalType": "address",
          "name": "approved",
          "type": "address"
        },
        {
          "indexed": true,
          "internalType": "uint256",
          "name": "tokenId",
          "type": "uint256"
        }
      ],
      "name": "Approval",
      "type": "event"
    },
    {
      "anonymous": false,
      "inputs": [
        {
          "indexed": true,
          "internalType": "address",
          "name": "owner",
          "type": "address"
        },
        {
          "indexed": true,
          "internalType": "address",
          "name": "operator",
          "type": "address"
        },
        {
          "indexed": false,
          "internalType": "bool",
          "name": "approved",
          "type": "bool"
        }
      ],
      "name": "ApprovalForAll",
      "type": "event"
    },
    {
      "anonymous": false,
      "inputs": [
        {
          "indexed": false,
          "internalType": "uint256",
          "name": "_fromTokenId",
          "type": "uint256"
        },
        {
          "indexed": false,
          "internalType": "uint256",
          "name": "_toTokenId",
          "type": "uint256"
        }
      ],
      "name": "BatchMetadataUpdate",
      "type": "event"
    },
    {
      "anonymous": false,
      "inputs": [
        {
          "indexed": false,
          "internalType": "uint256",
          "name": "_tokenId",
          "type": "uint256"
        }
      ],
      "name": "MetadataUpdate",
      "type": "event"
    },
    {
      "anonymous": false,
      "inputs": [
        {
          "indexed": false,
          "internalType": "uint256",
          "name": "tokenId",
          "type": "uint256"
        },
        {
          "indexed": false,
          "internalType": "address",
          "name": "owner",
          "type": "address"
        },
        {
          "indexed": false,
          "internalType": "address",
          "name": "seller",
          "type": "address"
        },
        {
          "indexed": false,
          "internalType": "uint256",
          "name": "price",
          "type": "uint256"
        },
        {
          "indexed": false,
          "internalType": "bool",
          "name": "sold",
          "type": "bool"
        },
        {
          "indexed": false,
          "internalType": "string",
          "name": "message",
          "type": "string"
        }
      ],
      "name": "NFT_Action",
      "type": "event"
    },
    {
      "anonymous": false,
      "inputs": [
        {
          "indexed": true,
          "internalType": "address",
          "name": "from",
          "type": "address"
        },
        {
          "indexed": true,
          "internalType": "address",
          "name": "to",
          "type": "address"
        },
        {
          "indexed": true,
          "internalType": "uint256",
          "name": "tokenId",
          "type": "uint256"
        }
      ],
      "name": "Transfer",
      "type": "event"
    },
    {
      "inputs": [],
      "name": "allNfts",
      "outputs": [
        {
          "components": [
            {
              "internalType": "address",
              "name": "owner",
              "type": "address"
            },
            {
              "internalType": "address",
              "name": "seller",
              "type": "address"
            },
            {
              "internalType": "uint256",
              "name": "price",
              "type": "uint256"
            },
            {
              "internalType": "bool",
              "name": "sold",
              "type": "bool"
            },
            {
              "internalType": "uint256",
              "name": "tokenId",
              "type": "uint256"
            }
          ],
          "internalType": "struct CeloNFT.NFT[]",
          "name": "",
          "type": "tuple[]"
        }
      ],
      "stateMutability": "view",
      "type": "function"
    },
    {
      "inputs": [
        {
          "internalType": "address",
          "name": "to",
          "type": "address"
        },
        {
          "internalType": "uint256",
          "name": "tokenId",
          "type": "uint256"
        }
      ],
      "name": "approve",
      "outputs": [],
      "stateMutability": "nonpayable",
      "type": "function"
    },
    {
      "inputs": [
        {
          "internalType": "address",
          "name": "owner",
          "type": "address"
        }
      ],
      "name": "balanceOf",
      "outputs": [
        {
          "internalType": "uint256",
          "name": "",
          "type": "uint256"
        }
      ],
      "stateMutability": "view",
      "type": "function"
    },
    {
      "inputs": [
        {
          "internalType": "string",
          "name": "_tokenURI",
          "type": "string"
        },
        {
          "internalType": "uint256",
          "name": "price",
          "type": "uint256"
        }
      ],
      "name": "createToken",
      "outputs": [
        {
          "internalType": "uint256",
          "name": "",
          "type": "uint256"
        }
      ],
      "stateMutability": "nonpayable",
      "type": "function"
    },
    {
      "inputs": [
        {
          "internalType": "uint256",
          "name": "tokenId",
          "type": "uint256"
        }
      ],
      "name": "getApproved",
      "outputs": [
        {
          "internalType": "address",
          "name": "",
          "type": "address"
        }
      ],
      "stateMutability": "view",
      "type": "function"
    },
    {
      "inputs": [
        {
          "internalType": "uint256",
          "name": "tokenId",
          "type": "uint256"
        }
      ],
      "name": "getNftPrice",
      "outputs": [
        {
          "internalType": "uint256",
          "name": "",
          "type": "uint256"
        }
      ],
      "stateMutability": "view",
      "type": "function"
    },
    {
      "inputs": [
        {
          "internalType": "address",
          "name": "owner",
          "type": "address"
        },
        {
          "internalType": "address",
          "name": "operator",
          "type": "address"
        }
      ],
      "name": "isApprovedForAll",
      "outputs": [
        {
          "internalType": "bool",
          "name": "",
          "type": "bool"
        }
      ],
      "stateMutability": "view",
      "type": "function"
    },
    {
      "inputs": [],
      "name": "name",
      "outputs": [
        {
          "internalType": "string",
          "name": "",
          "type": "string"
        }
      ],
      "stateMutability": "view",
      "type": "function"
    },
    {
      "inputs": [
        {
          "internalType": "uint256",
          "name": "tokenId",
          "type": "uint256"
        }
      ],
      "name": "ownerOf",
      "outputs": [
        {
          "internalType": "address",
          "name": "",
          "type": "address"
        }
      ],
      "stateMutability": "view",
      "type": "function"
    },
    {
      "inputs": [
        {
          "internalType": "address",
          "name": "from",
          "type": "address"
        },
        {
          "internalType": "address",
          "name": "to",
          "type": "address"
        },
        {
          "internalType": "uint256",
          "name": "tokenId",
          "type": "uint256"
        }
      ],
      "name": "safeTransferFrom",
      "outputs": [],
      "stateMutability": "nonpayable",
      "type": "function"
    },
    {
      "inputs": [
        {
          "internalType": "address",
          "name": "from",
          "type": "address"
        },
        {
          "internalType": "address",
          "name": "to",
          "type": "address"
        },
        {
          "internalType": "uint256",
          "name": "tokenId",
          "type": "uint256"
        },
        {
          "internalType": "bytes",
          "name": "data",
          "type": "bytes"
        }
      ],
      "name": "safeTransferFrom",
      "outputs": [],
      "stateMutability": "nonpayable",
      "type": "function"
    },
    {
      "inputs": [
        {
          "internalType": "uint256",
          "name": "tokenId",
          "type": "uint256"
        }
      ],
      "name": "sellNFT",
      "outputs": [],
      "stateMutability": "payable",
      "type": "function"
    },
    {
      "inputs": [
        {
          "internalType": "address",
          "name": "operator",
          "type": "address"
        },
        {
          "internalType": "bool",
          "name": "approved",
          "type": "bool"
        }
      ],
      "name": "setApprovalForAll",
      "outputs": [],
      "stateMutability": "nonpayable",
      "type": "function"
    },
    {
      "inputs": [
        {
          "internalType": "uint256",
          "name": "tokenId",
          "type": "uint256"
        }
      ],
      "name": "singleNFT",
      "outputs": [
        {
          "components": [
            {
              "internalType": "address",
              "name": "owner",
              "type": "address"
            },
            {
              "internalType": "address",
              "name": "seller",
              "type": "address"
            },
            {
              "internalType": "uint256",
              "name": "price",
              "type": "uint256"
            },
            {
              "internalType": "bool",
              "name": "sold",
              "type": "bool"
            },
            {
              "internalType": "uint256",
              "name": "tokenId",
              "type": "uint256"
            }
          ],
          "internalType": "struct CeloNFT.NFT",
          "name": "props",
          "type": "tuple"
        }
      ],
      "stateMutability": "view",
      "type": "function"
    },
    {
      "inputs": [
        {
          "internalType": "bytes4",
          "name": "interfaceId",
          "type": "bytes4"
        }
      ],
      "name": "supportsInterface",
      "outputs": [
        {
          "internalType": "bool",
          "name": "",
          "type": "bool"
        }
      ],
      "stateMutability": "view",
      "type": "function"
    },
    {
      "inputs": [],
      "name": "symbol",
      "outputs": [
        {
          "internalType": "string",
          "name": "",
          "type": "string"
        }
      ],
      "stateMutability": "view",
      "type": "function"
    },
    {
      "inputs": [
        {
          "internalType": "uint256",
          "name": "tokenId",
          "type": "uint256"
        }
      ],
      "name": "tokenURI",
      "outputs": [
        {
          "internalType": "string",
          "name": "",
          "type": "string"
        }
      ],
      "stateMutability": "view",
      "type": "function"
    },
    {
      "inputs": [
        {
          "internalType": "address",
          "name": "from",
          "type": "address"
        },
        {
          "internalType": "address",
          "name": "to",
          "type": "address"
        },
        {
          "internalType": "uint256",
          "name": "tokenId",
          "type": "uint256"
        }
      ],
      "name": "transferFrom",
      "outputs": [],
      "stateMutability": "nonpayable",
      "type": "function"
    },
    {
      "inputs": [],
      "name": "userNfts",
      "outputs": [
        {
          "components": [
            {
              "internalType": "address",
              "name": "owner",
              "type": "address"
            },
            {
              "internalType": "address",
              "name": "seller",
              "type": "address"
            },
            {
              "internalType": "uint256",
              "name": "price",
              "type": "uint256"
            },
            {
              "internalType": "bool",
              "name": "sold",
              "type": "bool"
            },
            {
              "internalType": "uint256",
              "name": "tokenId",
              "type": "uint256"
            }
          ],
          "internalType": "struct CeloNFT.NFT[]",
          "name": "",
          "type": "tuple[]"
        }
      ],
      "stateMutability": "view",
      "type": "function"
    }
  ],
  "bytecode": "0x60806040523480156200001157600080fd5b506040518060400160405280600781526020017f43656c6f4e4654000000000000000000000000000000000000000000000000008152506040518060400160405280600381526020017f415347000000000000000000000000000000000000000000000000000000000081525081600090816200008f919062000365565b508060019081620000a1919062000365565b50505033600960006101000a81548173ffffffffffffffffffffffffffffffffffffffff021916908373ffffffffffffffffffffffffffffffffffffffff1602179055506200044c565b600081519050919050565b7f4e487b7100000000000000000000000000000000000000000000000000000000600052604160045260246000fd5b7f4e487b7100000000000000000000000000000000000000000000000000000000600052602260045260246000fd5b600060028204905060018216806200016d57607f821691505b60208210810362000183576200018262000125565b5b50919050565b60008190508160005260206000209050919050565b60006020601f8301049050919050565b600082821b905092915050565b600060088302620001ed7fffffffffffffffffffffffffffffffffffffffffffffffffffffffffffffffff82620001ae565b620001f98683620001ae565b95508019841693508086168417925050509392505050565b6000819050919050565b6000819050919050565b600062000246620002406200023a8462000211565b6200021b565b62000211565b9050919050565b6000819050919050565b620002628362000225565b6200027a62000271826200024d565b848454620001bb565b825550505050565b600090565b6200029162000282565b6200029e81848462000257565b505050565b5b81811015620002c657620002ba60008262000287565b600181019050620002a4565b5050565b601f8211156200031557620002df8162000189565b620002ea846200019e565b81016020851015620002fa578190505b6200031262000309856200019e565b830182620002a3565b50505b505050565b600082821c905092915050565b60006200033a600019846008026200031a565b1980831691505092915050565b600062000355838362000327565b9150826002028217905092915050565b6200037082620000eb565b67ffffffffffffffff8111156200038c576200038b620000f6565b5b62000398825462000154565b620003a5828285620002ca565b600060209050601f831160018114620003dd5760008415620003c8578287015190505b620003d4858262000347565b86555062000444565b601f198416620003ed8662000189565b60005b828110156200041757848901518255600182019150602085019450602081019050620003f0565b8683101562000437578489015162000433601f89168262000327565b8355505b6001600288020188555050505b505050505050565b613bfa806200045c6000396000f3fe6080604052600436106101145760003560e01c806370a08231116100a0578063b88d4fde11610064578063b88d4fde146103e9578063c87b56dd14610412578063e985e9c51461044f578063ee9cdfb31461048c578063f2b8aa6f146104a857610114565b806370a08231146102de57806372b3b6201461031b5780637bf0989a1461035857806395d89b4114610395578063a22cb465146103c057610114565b8063081812fc116100e7578063081812fc146101e9578063095ea7b31461022657806323b872dd1461024f57806342842e0e146102785780636352211e146102a157610114565b806301ffc9a714610119578063043a2df414610156578063051d2b6b1461019357806306fdde03146101be575b600080fd5b34801561012557600080fd5b50610140600480360381019061013b91906125a4565b6104d3565b60405161014d91906125ec565b60405180910390f35b34801561016257600080fd5b5061017d6004803603810190610178919061263d565b610534565b60405161018a9190612731565b60405180910390f35b34801561019f57600080fd5b506101a861063c565b6040516101b59190612863565b60405180910390f35b3480156101ca57600080fd5b506101d36108fd565b6040516101e09190612915565b60405180910390f35b3480156101f557600080fd5b50610210600480360381019061020b919061263d565b61098f565b60405161021d9190612946565b60405180910390f35b34801561023257600080fd5b5061024d6004803603810190610248919061298d565b6109d5565b005b34801561025b57600080fd5b50610276600480360381019061027191906129cd565b610aec565b005b34801561028457600080fd5b5061029f600480360381019061029a91906129cd565b610b4c565b005b3480156102ad57600080fd5b506102c860048036038101906102c3919061263d565b610b6c565b6040516102d59190612946565b60405180910390f35b3480156102ea57600080fd5b5061030560048036038101906103009190612a20565b610bf2565b6040516103129190612a5c565b60405180910390f35b34801561032757600080fd5b50610342600480360381019061033d9190612bac565b610ca9565b60405161034f9190612a5c565b60405180910390f35b34801561036457600080fd5b5061037f600480360381019061037a919061263d565b610ceb565b60405161038c9190612a5c565b60405180910390f35b3480156103a157600080fd5b506103aa610d0b565b6040516103b79190612915565b60405180910390f35b3480156103cc57600080fd5b506103e760048036038101906103e29190612c34565b610d9d565b005b3480156103f557600080fd5b50610410600480360381019061040b9190612d15565b610db3565b005b34801561041e57600080fd5b506104396004803603810190610434919061263d565b610e15565b6040516104469190612915565b60405180910390f35b34801561045b57600080fd5b5061047660048036038101906104719190612d98565b610f27565b60405161048391906125ec565b60405180910390f35b6104a660048036038101906104a1919061263d565b610fbb565b005b3480156104b457600080fd5b506104bd611235565b6040516104ca9190612863565b60405180910390f35b6000634906490660e01b7bffffffffffffffffffffffffffffffffffffffffffffffffffffffff1916827bffffffffffffffffffffffffffffffffffffffffffffffffffffffff1916148061052d575061052c826113e8565b5b9050919050565b61053c6124db565b600a60008381526020019081526020016000206040518060a00160405290816000820160009054906101000a900473ffffffffffffffffffffffffffffffffffffffff1673ffffffffffffffffffffffffffffffffffffffff1673ffffffffffffffffffffffffffffffffffffffff1681526020016001820160009054906101000a900473ffffffffffffffffffffffffffffffffffffffff1673ffffffffffffffffffffffffffffffffffffffff1673ffffffffffffffffffffffffffffffffffffffff168152602001600282015481526020016003820160009054906101000a900460ff161515151581526020016004820154815250509050919050565b6060600061064a60076114ca565b9050600080600190505b8281116106e6573373ffffffffffffffffffffffffffffffffffffffff16600a600083815260200190815260200160002060000160009054906101000a900473ffffffffffffffffffffffffffffffffffffffff1673ffffffffffffffffffffffffffffffffffffffff16036106d35781806106cf90612e07565b9250505b80806106de90612e07565b915050610654565b5060008167ffffffffffffffff81111561070357610702612a81565b5b60405190808252806020026020018201604052801561073c57816020015b6107296124db565b8152602001906001900390816107215790505b509050600091506000600190505b8381116108f3573373ffffffffffffffffffffffffffffffffffffffff16600a600083815260200190815260200160002060000160009054906101000a900473ffffffffffffffffffffffffffffffffffffffff1673ffffffffffffffffffffffffffffffffffffffff16036108e057600a60008281526020019081526020016000206040518060a00160405290816000820160009054906101000a900473ffffffffffffffffffffffffffffffffffffffff1673ffffffffffffffffffffffffffffffffffffffff1673ffffffffffffffffffffffffffffffffffffffff1681526020016001820160009054906101000a900473ffffffffffffffffffffffffffffffffffffffff1673ffffffffffffffffffffffffffffffffffffffff1673ffffffffffffffffffffffffffffffffffffffff168152602001600282015481526020016003820160009054906101000a900460ff161515151581526020016004820154815250508284815181106108c6576108c5612e4f565b5b602002602001018190525082806108dc90612e07565b9350505b80806108eb90612e07565b91505061074a565b5080935050505090565b60606000805461090c90612ead565b80601f016020809104026020016040519081016040528092919081815260200182805461093890612ead565b80156109855780601f1061095a57610100808354040283529160200191610985565b820191906000526020600020905b81548152906001019060200180831161096857829003601f168201915b5050505050905090565b600061099a826114d8565b6004600083815260200190815260200160002060009054906101000a900473ffffffffffffffffffffffffffffffffffffffff169050919050565b60006109e082610b6c565b90508073ffffffffffffffffffffffffffffffffffffffff168373ffffffffffffffffffffffffffffffffffffffff1603610a50576040517f08c379a0000000000000000000000000000000000000000000000000000000008152600401610a4790612f50565b60405180910390fd5b8073ffffffffffffffffffffffffffffffffffffffff16610a6f611523565b73ffffffffffffffffffffffffffffffffffffffff161480610a9e5750610a9d81610a98611523565b610f27565b5b610add576040517f08c379a0000000000000000000000000000000000000000000000000000000008152600401610ad490612fe2565b60405180910390fd5b610ae7838361152b565b505050565b610afd610af7611523565b826115e4565b610b3c576040517f08c379a0000000000000000000000000000000000000000000000000000000008152600401610b3390613074565b60405180910390fd5b610b47838383611679565b505050565b610b6783838360405180602001604052806000815250610db3565b505050565b600080610b7883611972565b9050600073ffffffffffffffffffffffffffffffffffffffff168173ffffffffffffffffffffffffffffffffffffffff1603610be9576040517f08c379a0000000000000000000000000000000000000000000000000000000008152600401610be0906130e0565b60405180910390fd5b80915050919050565b60008073ffffffffffffffffffffffffffffffffffffffff168273ffffffffffffffffffffffffffffffffffffffff1603610c62576040517f08c379a0000000000000000000000000000000000000000000000000000000008152600401610c5990613172565b60405180910390fd5b600360008373ffffffffffffffffffffffffffffffffffffffff1673ffffffffffffffffffffffffffffffffffffffff168152602001908152602001600020549050919050565b6000610cb560076119af565b6000610cc160076114ca565b9050610ccd33826119c5565b610cd78185611be2565b610ce18184611c86565b8091505092915050565b6000600a6000838152602001908152602001600020600201549050919050565b606060018054610d1a90612ead565b80601f0160208091040260200160405190810160405280929190818152602001828054610d4690612ead565b8015610d935780601f10610d6857610100808354040283529160200191610d93565b820191906000526020600020905b815481529060010190602001808311610d7657829003601f168201915b5050505050905090565b610daf610da8611523565b8383611e12565b5050565b610dc4610dbe611523565b836115e4565b610e03576040517f08c379a0000000000000000000000000000000000000000000000000000000008152600401610dfa90613074565b60405180910390fd5b610e0f84848484611f7e565b50505050565b6060610e20826114d8565b6000600660008481526020019081526020016000208054610e4090612ead565b80601f0160208091040260200160405190810160405280929190818152602001828054610e6c90612ead565b8015610eb95780601f10610e8e57610100808354040283529160200191610eb9565b820191906000526020600020905b815481529060010190602001808311610e9c57829003601f168201915b505050505090506000610eca611fda565b90506000815103610edf578192505050610f22565b600082511115610f14578082604051602001610efc9291906131ce565b60405160208183030381529060405292505050610f22565b610f1d84611ff1565b925050505b919050565b6000600560008473ffffffffffffffffffffffffffffffffffffffff1673ffffffffffffffffffffffffffffffffffffffff16815260200190815260200160002060008373ffffffffffffffffffffffffffffffffffffffff1673ffffffffffffffffffffffffffffffffffffffff16815260200190815260200160002060009054906101000a900460ff16905092915050565b6000600a60008381526020019081526020016000206002015490506000600a600084815260200190815260200160002060010160009054906101000a900473ffffffffffffffffffffffffffffffffffffffff169050813414611053576040517f08c379a000000000000000000000000000000000000000000000000000000000815260040161104a9061323e565b60405180910390fd5b60008173ffffffffffffffffffffffffffffffffffffffff16836040516110799061328f565b60006040518083038185875af1925050503d80600081146110b6576040519150601f19603f3d011682016040523d82523d6000602084013e6110bb565b606091505b50509050806110ff576040517f08c379a00000000000000000000000000000000000000000000000000000000081526004016110f6906132f0565b60405180910390fd5b33600a600086815260200190815260200160002060000160006101000a81548173ffffffffffffffffffffffffffffffffffffffff021916908373ffffffffffffffffffffffffffffffffffffffff1602179055506000600a600086815260200190815260200160002060010160006101000a81548173ffffffffffffffffffffffffffffffffffffffff021916908373ffffffffffffffffffffffffffffffffffffffff1602179055506001600a600086815260200190815260200160002060030160006101000a81548160ff0219169083151502179055506111e360086119af565b6111ee303386611679565b7f6abf8fea1f4c585bf426b0fdbd54c0f004a746a4b6dcb76752a2d5d268f8730b8433600086600160405161122795949392919061335c565b60405180910390a150505050565b6060600061124360076114ca565b905060008167ffffffffffffffff81111561126157611260612a81565b5b60405190808252806020026020018201604052801561129a57816020015b6112876124db565b81526020019060019003908161127f5790505b50905060005b81518110156113df57600a60006001836112ba91906133c2565b81526020019081526020016000206040518060a00160405290816000820160009054906101000a900473ffffffffffffffffffffffffffffffffffffffff1673ffffffffffffffffffffffffffffffffffffffff1673ffffffffffffffffffffffffffffffffffffffff1681526020016001820160009054906101000a900473ffffffffffffffffffffffffffffffffffffffff1673ffffffffffffffffffffffffffffffffffffffff1673ffffffffffffffffffffffffffffffffffffffff168152602001600282015481526020016003820160009054906101000a900460ff161515151581526020016004820154815250508282815181106113c1576113c0612e4f565b5b602002602001018190525080806113d790612e07565b9150506112a0565b50809250505090565b60007f80ac58cd000000000000000000000000000000000000000000000000000000007bffffffffffffffffffffffffffffffffffffffffffffffffffffffff1916827bffffffffffffffffffffffffffffffffffffffffffffffffffffffff191614806114b357507f5b5e139f000000000000000000000000000000000000000000000000000000007bffffffffffffffffffffffffffffffffffffffffffffffffffffffff1916827bffffffffffffffffffffffffffffffffffffffffffffffffffffffff1916145b806114c357506114c282612059565b5b9050919050565b600081600001549050919050565b6114e1816120c3565b611520576040517f08c379a0000000000000000000000000000000000000000000000000000000008152600401611517906130e0565b60405180910390fd5b50565b600033905090565b816004600083815260200190815260200160002060006101000a81548173ffffffffffffffffffffffffffffffffffffffff021916908373ffffffffffffffffffffffffffffffffffffffff160217905550808273ffffffffffffffffffffffffffffffffffffffff1661159e83610b6c565b73ffffffffffffffffffffffffffffffffffffffff167f8c5be1e5ebec7d5bd14f71427d1e84f3dd0314c0f7b2291e5b200ac8c7c3b92560405160405180910390a45050565b6000806115f083610b6c565b90508073ffffffffffffffffffffffffffffffffffffffff168473ffffffffffffffffffffffffffffffffffffffff16148061163257506116318185610f27565b5b8061167057508373ffffffffffffffffffffffffffffffffffffffff166116588461098f565b73ffffffffffffffffffffffffffffffffffffffff16145b91505092915050565b8273ffffffffffffffffffffffffffffffffffffffff1661169982610b6c565b73ffffffffffffffffffffffffffffffffffffffff16146116ef576040517f08c379a00000000000000000000000000000000000000000000000000000000081526004016116e690613468565b60405180910390fd5b600073ffffffffffffffffffffffffffffffffffffffff168273ffffffffffffffffffffffffffffffffffffffff160361175e576040517f08c379a0000000000000000000000000000000000000000000000000000000008152600401611755906134fa565b60405180910390fd5b61176b8383836001612104565b8273ffffffffffffffffffffffffffffffffffffffff1661178b82610b6c565b73ffffffffffffffffffffffffffffffffffffffff16146117e1576040517f08c379a00000000000000000000000000000000000000000000000000000000081526004016117d890613468565b60405180910390fd5b6004600082815260200190815260200160002060006101000a81549073ffffffffffffffffffffffffffffffffffffffff02191690556001600360008573ffffffffffffffffffffffffffffffffffffffff1673ffffffffffffffffffffffffffffffffffffffff168152602001908152602001600020600082825403925050819055506001600360008473ffffffffffffffffffffffffffffffffffffffff1673ffffffffffffffffffffffffffffffffffffffff16815260200190815260200160002060008282540192505081905550816002600083815260200190815260200160002060006101000a81548173ffffffffffffffffffffffffffffffffffffffff021916908373ffffffffffffffffffffffffffffffffffffffff160217905550808273ffffffffffffffffffffffffffffffffffffffff168473ffffffffffffffffffffffffffffffffffffffff167fddf252ad1be2c89b69c2b068fc378daa952ba7f163c4a11628f55a4df523b3ef60405160405180910390a461196d838383600161210a565b505050565b60006002600083815260200190815260200160002060009054906101000a900473ffffffffffffffffffffffffffffffffffffffff169050919050565b6001816000016000828254019250508190555050565b600073ffffffffffffffffffffffffffffffffffffffff168273ffffffffffffffffffffffffffffffffffffffff1603611a34576040517f08c379a0000000000000000000000000000000000000000000000000000000008152600401611a2b90613566565b60405180910390fd5b611a3d816120c3565b15611a7d576040517f08c379a0000000000000000000000000000000000000000000000000000000008152600401611a74906135d2565b60405180910390fd5b611a8b600083836001612104565b611a94816120c3565b15611ad4576040517f08c379a0000000000000000000000000000000000000000000000000000000008152600401611acb906135d2565b60405180910390fd5b6001600360008473ffffffffffffffffffffffffffffffffffffffff1673ffffffffffffffffffffffffffffffffffffffff16815260200190815260200160002060008282540192505081905550816002600083815260200190815260200160002060006101000a81548173ffffffffffffffffffffffffffffffffffffffff021916908373ffffffffffffffffffffffffffffffffffffffff160217905550808273ffffffffffffffffffffffffffffffffffffffff16600073ffffffffffffffffffffffffffffffffffffffff167fddf252ad1be2c89b69c2b068fc378daa952ba7f163c4a11628f55a4df523b3ef60405160405180910390a4611bde60008383600161210a565b5050565b611beb826120c3565b611c2a576040517f08c379a0000000000000000000000000000000000000000000000000000000008152600401611c2190613664565b60405180910390fd5b80600660008481526020019081526020016000209081611c4a9190613830565b507ff8e1a15aba9398e019f0b49df1a4fde98ee17ae345cb5f6b5e2c27f5033e8ce782604051611c7a9190612a5c565b60405180910390a15050565b6000611c9260076114ca565b90506040518060a001604052803073ffffffffffffffffffffffffffffffffffffffff1681526020013373ffffffffffffffffffffffffffffffffffffffff16815260200183815260200160001515815260200184815250600a600083815260200190815260200160002060008201518160000160006101000a81548173ffffffffffffffffffffffffffffffffffffffff021916908373ffffffffffffffffffffffffffffffffffffffff16021790555060208201518160010160006101000a81548173ffffffffffffffffffffffffffffffffffffffff021916908373ffffffffffffffffffffffffffffffffffffffff1602179055506040820151816002015560608201518160030160006101000a81548160ff02191690831515021790555060808201518160040155905050611dcd333085611679565b7f6abf8fea1f4c585bf426b0fdbd54c0f004a746a4b6dcb76752a2d5d268f8730b833033856000604051611e0595949392919061394e565b60405180910390a1505050565b8173ffffffffffffffffffffffffffffffffffffffff168373ffffffffffffffffffffffffffffffffffffffff1603611e80576040517f08c379a0000000000000000000000000000000000000000000000000000000008152600401611e7790613a00565b60405180910390fd5b80600560008573ffffffffffffffffffffffffffffffffffffffff1673ffffffffffffffffffffffffffffffffffffffff16815260200190815260200160002060008473ffffffffffffffffffffffffffffffffffffffff1673ffffffffffffffffffffffffffffffffffffffff16815260200190815260200160002060006101000a81548160ff0219169083151502179055508173ffffffffffffffffffffffffffffffffffffffff168373ffffffffffffffffffffffffffffffffffffffff167f17307eab39ab6107e8899845ad3d59bd9653f200f220920489ca2b5937696c3183604051611f7191906125ec565b60405180910390a3505050565b611f89848484611679565b611f9584848484612110565b611fd4576040517f08c379a0000000000000000000000000000000000000000000000000000000008152600401611fcb90613a92565b60405180910390fd5b50505050565b606060405180602001604052806000815250905090565b6060611ffc826114d8565b6000612006611fda565b905060008151116120265760405180602001604052806000815250612051565b8061203084612297565b6040516020016120419291906131ce565b6040516020818303038152906040525b915050919050565b60007f01ffc9a7000000000000000000000000000000000000000000000000000000007bffffffffffffffffffffffffffffffffffffffffffffffffffffffff1916827bffffffffffffffffffffffffffffffffffffffffffffffffffffffff1916149050919050565b60008073ffffffffffffffffffffffffffffffffffffffff166120e583611972565b73ffffffffffffffffffffffffffffffffffffffff1614159050919050565b50505050565b50505050565b60006121318473ffffffffffffffffffffffffffffffffffffffff16612365565b1561228a578373ffffffffffffffffffffffffffffffffffffffff1663150b7a0261215a611523565b8786866040518563ffffffff1660e01b815260040161217c9493929190613b07565b6020604051808303816000875af19250505080156121b857506040513d601f19601f820116820180604052508101906121b59190613b68565b60015b61223a573d80600081146121e8576040519150601f19603f3d011682016040523d82523d6000602084013e6121ed565b606091505b506000815103612232576040517f08c379a000000000000000000000000000000000000000000000000000000000815260040161222990613a92565b60405180910390fd5b805181602001fd5b63150b7a0260e01b7bffffffffffffffffffffffffffffffffffffffffffffffffffffffff1916817bffffffffffffffffffffffffffffffffffffffffffffffffffffffff19161491505061228f565b600190505b949350505050565b6060600060016122a684612388565b01905060008167ffffffffffffffff8111156122c5576122c4612a81565b5b6040519080825280601f01601f1916602001820160405280156122f75781602001600182028036833780820191505090505b509050600082602001820190505b60011561235a578080600190039150507f3031323334353637383961626364656600000000000000000000000000000000600a86061a8153600a858161234e5761234d613b95565b5b04945060008503612305575b819350505050919050565b6000808273ffffffffffffffffffffffffffffffffffffffff163b119050919050565b600080600090507a184f03e93ff9f4daa797ed6e38ed64bf6a1f01000000000000000083106123e6577a184f03e93ff9f4daa797ed6e38ed64bf6a1f01000000000000000083816123dc576123db613b95565b5b0492506040810190505b6d04ee2d6d415b85acef81000000008310612423576d04ee2d6d415b85acef8100000000838161241957612418613b95565b5b0492506020810190505b662386f26fc10000831061245257662386f26fc10000838161244857612447613b95565b5b0492506010810190505b6305f5e100831061247b576305f5e100838161247157612470613b95565b5b0492506008810190505b61271083106124a057612710838161249657612495613b95565b5b0492506004810190505b606483106124c357606483816124b9576124b8613b95565b5b0492506002810190505b600a83106124d2576001810190505b80915050919050565b6040518060a00160405280600073ffffffffffffffffffffffffffffffffffffffff168152602001600073ffffffffffffffffffffffffffffffffffffffff16815260200160008152602001600015158152602001600081525090565b6000604051905090565b600080fd5b600080fd5b60007fffffffff0000000000000000000000000000000000000000000000000000000082169050919050565b6125818161254c565b811461258c57600080fd5b50565b60008135905061259e81612578565b92915050565b6000602082840312156125ba576125b9612542565b5b60006125c88482850161258f565b91505092915050565b60008115159050919050565b6125e6816125d1565b82525050565b600060208201905061260160008301846125dd565b92915050565b6000819050919050565b61261a81612607565b811461262557600080fd5b50565b60008135905061263781612611565b92915050565b60006020828403121561265357612652612542565b5b600061266184828501612628565b91505092915050565b600073ffffffffffffffffffffffffffffffffffffffff82169050919050565b60006126958261266a565b9050919050565b6126a58161268a565b82525050565b6126b481612607565b82525050565b6126c3816125d1565b82525050565b60a0820160008201516126df600085018261269c565b5060208201516126f2602085018261269c565b50604082015161270560408501826126ab565b50606082015161271860608501826126ba565b50608082015161272b60808501826126ab565b50505050565b600060a08201905061274660008301846126c9565b92915050565b600081519050919050565b600082825260208201905092915050565b6000819050602082019050919050565b60a08201600082015161278e600085018261269c565b5060208201516127a1602085018261269c565b5060408201516127b460408501826126ab565b5060608201516127c760608501826126ba565b5060808201516127da60808501826126ab565b50505050565b60006127ec8383612778565b60a08301905092915050565b6000602082019050919050565b60006128108261274c565b61281a8185612757565b935061282583612768565b8060005b8381101561285657815161283d88826127e0565b9750612848836127f8565b925050600181019050612829565b5085935050505092915050565b6000602082019050818103600083015261287d8184612805565b905092915050565b600081519050919050565b600082825260208201905092915050565b60005b838110156128bf5780820151818401526020810190506128a4565b60008484015250505050565b6000601f19601f8301169050919050565b60006128e782612885565b6128f18185612890565b93506129018185602086016128a1565b61290a816128cb565b840191505092915050565b6000602082019050818103600083015261292f81846128dc565b905092915050565b6129408161268a565b82525050565b600060208201905061295b6000830184612937565b92915050565b61296a8161268a565b811461297557600080fd5b50565b60008135905061298781612961565b92915050565b600080604083850312156129a4576129a3612542565b5b60006129b285828601612978565b92505060206129c385828601612628565b9150509250929050565b6000806000606084860312156129e6576129e5612542565b5b60006129f486828701612978565b9350506020612a0586828701612978565b9250506040612a1686828701612628565b9150509250925092565b600060208284031215612a3657612a35612542565b5b6000612a4484828501612978565b91505092915050565b612a5681612607565b82525050565b6000602082019050612a716000830184612a4d565b92915050565b600080fd5b600080fd5b7f4e487b7100000000000000000000000000000000000000000000000000000000600052604160045260246000fd5b612ab9826128cb565b810181811067ffffffffffffffff82111715612ad857612ad7612a81565b5b80604052505050565b6000612aeb612538565b9050612af78282612ab0565b919050565b600067ffffffffffffffff821115612b1757612b16612a81565b5b612b20826128cb565b9050602081019050919050565b82818337600083830152505050565b6000612b4f612b4a84612afc565b612ae1565b905082815260208101848484011115612b6b57612b6a612a7c565b5b612b76848285612b2d565b509392505050565b600082601f830112612b9357612b92612a77565b5b8135612ba3848260208601612b3c565b91505092915050565b60008060408385031215612bc357612bc2612542565b5b600083013567ffffffffffffffff811115612be157612be0612547565b5b612bed85828601612b7e565b9250506020612bfe85828601612628565b9150509250929050565b612c11816125d1565b8114612c1c57600080fd5b50565b600081359050612c2e81612c08565b92915050565b60008060408385031215612c4b57612c4a612542565b5b6000612c5985828601612978565b9250506020612c6a85828601612c1f565b9150509250929050565b600067ffffffffffffffff821115612c8f57612c8e612a81565b5b612c98826128cb565b9050602081019050919050565b6000612cb8612cb384612c74565b612ae1565b905082815260208101848484011115612cd457612cd3612a7c565b5b612cdf848285612b2d565b509392505050565b600082601f830112612cfc57612cfb612a77565b5b8135612d0c848260208601612ca5565b91505092915050565b60008060008060808587031215612d2f57612d2e612542565b5b6000612d3d87828801612978565b9450506020612d4e87828801612978565b9350506040612d5f87828801612628565b925050606085013567ffffffffffffffff811115612d8057612d7f612547565b5b612d8c87828801612ce7565b91505092959194509250565b60008060408385031215612daf57612dae612542565b5b6000612dbd85828601612978565b9250506020612dce85828601612978565b9150509250929050565b7f4e487b7100000000000000000000000000000000000000000000000000000000600052601160045260246000fd5b6000612e1282612607565b91507fffffffffffffffffffffffffffffffffffffffffffffffffffffffffffffffff8203612e4457612e43612dd8565b5b600182019050919050565b7f4e487b7100000000000000000000000000000000000000000000000000000000600052603260045260246000fd5b7f4e487b7100000000000000000000000000000000000000000000000000000000600052602260045260246000fd5b60006002820490506001821680612ec557607f821691505b602082108103612ed857612ed7612e7e565b5b50919050565b7f4552433732313a20617070726f76616c20746f2063757272656e74206f776e6560008201527f7200000000000000000000000000000000000000000000000000000000000000602082015250565b6000612f3a602183612890565b9150612f4582612ede565b604082019050919050565b60006020820190508181036000830152612f6981612f2d565b9050919050565b7f4552433732313a20617070726f76652063616c6c6572206973206e6f7420746f60008201527f6b656e206f776e6572206f7220617070726f76656420666f7220616c6c000000602082015250565b6000612fcc603d83612890565b9150612fd782612f70565b604082019050919050565b60006020820190508181036000830152612ffb81612fbf565b9050919050565b7f4552433732313a2063616c6c6572206973206e6f7420746f6b656e206f776e6560008201527f72206f7220617070726f76656400000000000000000000000000000000000000602082015250565b600061305e602d83612890565b915061306982613002565b604082019050919050565b6000602082019050818103600083015261308d81613051565b9050919050565b7f4552433732313a20696e76616c696420746f6b656e2049440000000000000000600082015250565b60006130ca601883612890565b91506130d582613094565b602082019050919050565b600060208201905081810360008301526130f9816130bd565b9050919050565b7f4552433732313a2061646472657373207a65726f206973206e6f74206120766160008201527f6c6964206f776e65720000000000000000000000000000000000000000000000602082015250565b600061315c602983612890565b915061316782613100565b604082019050919050565b6000602082019050818103600083015261318b8161314f565b9050919050565b600081905092915050565b60006131a882612885565b6131b28185613192565b93506131c28185602086016128a1565b80840191505092915050565b60006131da828561319d565b91506131e6828461319d565b91508190509392505050565b7f696e636f727265637420616d6f756e7400000000000000000000000000000000600082015250565b6000613228601083612890565b9150613233826131f2565b602082019050919050565b600060208201905081810360008301526132578161321b565b9050919050565b600081905092915050565b50565b600061327960008361325e565b915061328482613269565b600082019050919050565b600061329a8261326c565b9150819050919050565b7f7061796d656e74206661696c6564000000000000000000000000000000000000600082015250565b60006132da600e83612890565b91506132e5826132a4565b602082019050919050565b60006020820190508181036000830152613309816132cd565b9050919050565b7f536f6c64204e4654207375636365737366756c6c790000000000000000000000600082015250565b6000613346601583612890565b915061335182613310565b602082019050919050565b600060c0820190506133716000830188612a4d565b61337e6020830187612937565b61338b6040830186612937565b6133986060830185612a4d565b6133a560808301846125dd565b81810360a08301526133b681613339565b90509695505050505050565b60006133cd82612607565b91506133d883612607565b92508282019050808211156133f0576133ef612dd8565b5b92915050565b7f4552433732313a207472616e736665722066726f6d20696e636f72726563742060008201527f6f776e6572000000000000000000000000000000000000000000000000000000602082015250565b6000613452602583612890565b915061345d826133f6565b604082019050919050565b6000602082019050818103600083015261348181613445565b9050919050565b7f4552433732313a207472616e7366657220746f20746865207a65726f2061646460008201527f7265737300000000000000000000000000000000000000000000000000000000602082015250565b60006134e4602483612890565b91506134ef82613488565b604082019050919050565b60006020820190508181036000830152613513816134d7565b9050919050565b7f4552433732313a206d696e7420746f20746865207a65726f2061646472657373600082015250565b6000613550602083612890565b915061355b8261351a565b602082019050919050565b6000602082019050818103600083015261357f81613543565b9050919050565b7f4552433732313a20746f6b656e20616c7265616479206d696e74656400000000600082015250565b60006135bc601c83612890565b91506135c782613586565b602082019050919050565b600060208201905081810360008301526135eb816135af565b9050919050565b7f45524337323155524953746f726167653a2055524920736574206f66206e6f6e60008201527f6578697374656e7420746f6b656e000000000000000000000000000000000000602082015250565b600061364e602e83612890565b9150613659826135f2565b604082019050919050565b6000602082019050818103600083015261367d81613641565b9050919050565b60008190508160005260206000209050919050565b60006020601f8301049050919050565b600082821b905092915050565b6000600883026136e67fffffffffffffffffffffffffffffffffffffffffffffffffffffffffffffffff826136a9565b6136f086836136a9565b95508019841693508086168417925050509392505050565b6000819050919050565b600061372d61372861372384612607565b613708565b612607565b9050919050565b6000819050919050565b61374783613712565b61375b61375382613734565b8484546136b6565b825550505050565b600090565b613770613763565b61377b81848461373e565b505050565b5b8181101561379f57613794600082613768565b600181019050613781565b5050565b601f8211156137e4576137b581613684565b6137be84613699565b810160208510156137cd578190505b6137e16137d985613699565b830182613780565b50505b505050565b600082821c905092915050565b6000613807600019846008026137e9565b1980831691505092915050565b600061382083836137f6565b9150826002028217905092915050565b61383982612885565b67ffffffffffffffff81111561385257613851612a81565b5b61385c8254612ead565b6138678282856137a3565b600060209050601f83116001811461389a5760008415613888578287015190505b6138928582613814565b8655506138fa565b601f1984166138a886613684565b60005b828110156138d0578489015182556001820191506020850194506020810190506138ab565b868310156138ed57848901516138e9601f8916826137f6565b8355505b6001600288020188555050505b505050505050565b7f4e46542063726561746564207375636365737366756c79000000000000000000600082015250565b6000613938601783612890565b915061394382613902565b602082019050919050565b600060c0820190506139636000830188612a4d565b6139706020830187612937565b61397d6040830186612937565b61398a6060830185612a4d565b61399760808301846125dd565b81810360a08301526139a88161392b565b90509695505050505050565b7f4552433732313a20617070726f766520746f2063616c6c657200000000000000600082015250565b60006139ea601983612890565b91506139f5826139b4565b602082019050919050565b60006020820190508181036000830152613a19816139dd565b9050919050565b7f4552433732313a207472616e7366657220746f206e6f6e20455243373231526560008201527f63656976657220696d706c656d656e7465720000000000000000000000000000602082015250565b6000613a7c603283612890565b9150613a8782613a20565b604082019050919050565b60006020820190508181036000830152613aab81613a6f565b9050919050565b600081519050919050565b600082825260208201905092915050565b6000613ad982613ab2565b613ae38185613abd565b9350613af38185602086016128a1565b613afc816128cb565b840191505092915050565b6000608082019050613b1c6000830187612937565b613b296020830186612937565b613b366040830185612a4d565b8181036060830152613b488184613ace565b905095945050505050565b600081519050613b6281612578565b92915050565b600060208284031215613b7e57613b7d612542565b5b6000613b8c84828501613b53565b91505092915050565b7f4e487b7100000000000000000000000000000000000000000000000000000000600052601260045260246000fdfea2646970667358221220976c5945e693f29b5930a3682029ccb4beba727d488cd0a5238371966f4e6e7364736f6c63430008130033",
  "linkReferences": {},
  "deployedLinkReferences": {}
}