{
  "_format": "hh-sol-artifact-1",
  "contractName": "NFT_Marketplace",
  "sourceName": "contracts/NFT_Marketplace.sol",
  "abi": [
    {
      "inputs": [],
      "stateMutability": "nonpayable",
      "type": "constructor"
    },
    {
      "anonymous": false,
      "inputs": [
        {
          "indexed": true,
          "internalType": "address",
          "name": "owner",
          "type": "address"
        },
        {
          "indexed": true,
          "internalType": "address",
          "name": "approved",
          "type": "address"
        },
        {
          "indexed": true,
          "internalType": "uint256",
          "name": "tokenId",
          "type": "uint256"
        }
      ],
      "name": "Approval",
      "type": "event"
    },
    {
      "anonymous": false,
      "inputs": [
        {
          "indexed": true,
          "internalType": "address",
          "name": "owner",
          "type": "address"
        },
        {
          "indexed": true,
          "internalType": "address",
          "name": "operator",
          "type": "address"
        },
        {
          "indexed": false,
          "internalType": "bool",
          "name": "approved",
          "type": "bool"
        }
      ],
      "name": "ApprovalForAll",
      "type": "event"
    },
    {
      "anonymous": false,
      "inputs": [
        {
          "indexed": false,
          "internalType": "uint256",
          "name": "_fromTokenId",
          "type": "uint256"
        },
        {
          "indexed": false,
          "internalType": "uint256",
          "name": "_toTokenId",
          "type": "uint256"
        }
      ],
      "name": "BatchMetadataUpdate",
      "type": "event"
    },
    {
      "anonymous": false,
      "inputs": [
        {
          "indexed": false,
          "internalType": "uint256",
          "name": "_tokenId",
          "type": "uint256"
        }
      ],
      "name": "MetadataUpdate",
      "type": "event"
    },
    {
      "anonymous": false,
      "inputs": [
        {
          "indexed": false,
          "internalType": "uint256",
          "name": "tokenId",
          "type": "uint256"
        },
        {
          "indexed": false,
          "internalType": "address",
          "name": "owner",
          "type": "address"
        },
        {
          "indexed": false,
          "internalType": "address",
          "name": "seller",
          "type": "address"
        },
        {
          "indexed": false,
          "internalType": "uint256",
          "name": "price",
          "type": "uint256"
        },
        {
          "indexed": false,
          "internalType": "bool",
          "name": "sold",
          "type": "bool"
        },
        {
          "indexed": false,
          "internalType": "string",
          "name": "message",
          "type": "string"
        }
      ],
      "name": "NFT_Action",
      "type": "event"
    },
    {
      "anonymous": false,
      "inputs": [
        {
          "indexed": true,
          "internalType": "address",
          "name": "from",
          "type": "address"
        },
        {
          "indexed": true,
          "internalType": "address",
          "name": "to",
          "type": "address"
        },
        {
          "indexed": true,
          "internalType": "uint256",
          "name": "tokenId",
          "type": "uint256"
        }
      ],
      "name": "Transfer",
      "type": "event"
    },
    {
      "inputs": [],
      "name": "allNfts",
      "outputs": [
        {
          "components": [
            {
              "internalType": "address",
              "name": "owner",
              "type": "address"
            },
            {
              "internalType": "address",
              "name": "seller",
              "type": "address"
            },
            {
              "internalType": "uint256",
              "name": "price",
              "type": "uint256"
            },
            {
              "internalType": "bool",
              "name": "sold",
              "type": "bool"
            },
            {
              "internalType": "uint256",
              "name": "tokenId",
              "type": "uint256"
            }
          ],
          "internalType": "struct NFT_Marketplace.NFT[]",
          "name": "",
          "type": "tuple[]"
        }
      ],
      "stateMutability": "view",
      "type": "function"
    },
    {
      "inputs": [
        {
          "internalType": "address",
          "name": "to",
          "type": "address"
        },
        {
          "internalType": "uint256",
          "name": "tokenId",
          "type": "uint256"
        }
      ],
      "name": "approve",
      "outputs": [],
      "stateMutability": "nonpayable",
      "type": "function"
    },
    {
      "inputs": [
        {
          "internalType": "address",
          "name": "owner",
          "type": "address"
        }
      ],
      "name": "balanceOf",
      "outputs": [
        {
          "internalType": "uint256",
          "name": "",
          "type": "uint256"
        }
      ],
      "stateMutability": "view",
      "type": "function"
    },
    {
      "inputs": [
        {
          "internalType": "string",
          "name": "_tokenURI",
          "type": "string"
        },
        {
          "internalType": "uint256",
          "name": "price",
          "type": "uint256"
        }
      ],
      "name": "createToken",
      "outputs": [
        {
          "internalType": "uint256",
          "name": "",
          "type": "uint256"
        }
      ],
      "stateMutability": "nonpayable",
      "type": "function"
    },
    {
      "inputs": [
        {
          "internalType": "uint256",
          "name": "tokenId",
          "type": "uint256"
        }
      ],
      "name": "getApproved",
      "outputs": [
        {
          "internalType": "address",
          "name": "",
          "type": "address"
        }
      ],
      "stateMutability": "view",
      "type": "function"
    },
    {
      "inputs": [
        {
          "internalType": "uint256",
          "name": "tokenId",
          "type": "uint256"
        }
      ],
      "name": "getNftPrice",
      "outputs": [
        {
          "internalType": "uint256",
          "name": "",
          "type": "uint256"
        }
      ],
      "stateMutability": "view",
      "type": "function"
    },
    {
      "inputs": [
        {
          "internalType": "address",
          "name": "owner",
          "type": "address"
        },
        {
          "internalType": "address",
          "name": "operator",
          "type": "address"
        }
      ],
      "name": "isApprovedForAll",
      "outputs": [
        {
          "internalType": "bool",
          "name": "",
          "type": "bool"
        }
      ],
      "stateMutability": "view",
      "type": "function"
    },
    {
      "inputs": [],
      "name": "name",
      "outputs": [
        {
          "internalType": "string",
          "name": "",
          "type": "string"
        }
      ],
      "stateMutability": "view",
      "type": "function"
    },
    {
      "inputs": [
        {
          "internalType": "uint256",
          "name": "tokenId",
          "type": "uint256"
        }
      ],
      "name": "ownerOf",
      "outputs": [
        {
          "internalType": "address",
          "name": "",
          "type": "address"
        }
      ],
      "stateMutability": "view",
      "type": "function"
    },
    {
      "inputs": [
        {
          "internalType": "address",
          "name": "from",
          "type": "address"
        },
        {
          "internalType": "address",
          "name": "to",
          "type": "address"
        },
        {
          "internalType": "uint256",
          "name": "tokenId",
          "type": "uint256"
        }
      ],
      "name": "safeTransferFrom",
      "outputs": [],
      "stateMutability": "nonpayable",
      "type": "function"
    },
    {
      "inputs": [
        {
          "internalType": "address",
          "name": "from",
          "type": "address"
        },
        {
          "internalType": "address",
          "name": "to",
          "type": "address"
        },
        {
          "internalType": "uint256",
          "name": "tokenId",
          "type": "uint256"
        },
        {
          "internalType": "bytes",
          "name": "data",
          "type": "bytes"
        }
      ],
      "name": "safeTransferFrom",
      "outputs": [],
      "stateMutability": "nonpayable",
      "type": "function"
    },
    {
      "inputs": [
        {
          "internalType": "uint256",
          "name": "tokenId",
          "type": "uint256"
        }
      ],
      "name": "sellNFT",
      "outputs": [],
      "stateMutability": "payable",
      "type": "function"
    },
    {
      "inputs": [
        {
          "internalType": "address",
          "name": "operator",
          "type": "address"
        },
        {
          "internalType": "bool",
          "name": "approved",
          "type": "bool"
        }
      ],
      "name": "setApprovalForAll",
      "outputs": [],
      "stateMutability": "nonpayable",
      "type": "function"
    },
    {
      "inputs": [
        {
          "internalType": "uint256",
          "name": "tokenId",
          "type": "uint256"
        }
      ],
      "name": "singleNFT",
      "outputs": [
        {
          "components": [
            {
              "internalType": "address",
              "name": "owner",
              "type": "address"
            },
            {
              "internalType": "address",
              "name": "seller",
              "type": "address"
            },
            {
              "internalType": "uint256",
              "name": "price",
              "type": "uint256"
            },
            {
              "internalType": "bool",
              "name": "sold",
              "type": "bool"
            },
            {
              "internalType": "uint256",
              "name": "tokenId",
              "type": "uint256"
            }
          ],
          "internalType": "struct NFT_Marketplace.NFT",
          "name": "props",
          "type": "tuple"
        }
      ],
      "stateMutability": "view",
      "type": "function"
    },
    {
      "inputs": [
        {
          "internalType": "bytes4",
          "name": "interfaceId",
          "type": "bytes4"
        }
      ],
      "name": "supportsInterface",
      "outputs": [
        {
          "internalType": "bool",
          "name": "",
          "type": "bool"
        }
      ],
      "stateMutability": "view",
      "type": "function"
    },
    {
      "inputs": [],
      "name": "symbol",
      "outputs": [
        {
          "internalType": "string",
          "name": "",
          "type": "string"
        }
      ],
      "stateMutability": "view",
      "type": "function"
    },
    {
      "inputs": [
        {
          "internalType": "uint256",
          "name": "tokenId",
          "type": "uint256"
        }
      ],
      "name": "tokenURI",
      "outputs": [
        {
          "internalType": "string",
          "name": "",
          "type": "string"
        }
      ],
      "stateMutability": "view",
      "type": "function"
    },
    {
      "inputs": [
        {
          "internalType": "address",
          "name": "from",
          "type": "address"
        },
        {
          "internalType": "address",
          "name": "to",
          "type": "address"
        },
        {
          "internalType": "uint256",
          "name": "tokenId",
          "type": "uint256"
        }
      ],
      "name": "transferFrom",
      "outputs": [],
      "stateMutability": "nonpayable",
      "type": "function"
    },
    {
      "inputs": [],
      "name": "userNfts",
      "outputs": [
        {
          "components": [
            {
              "internalType": "address",
              "name": "owner",
              "type": "address"
            },
            {
              "internalType": "address",
              "name": "seller",
              "type": "address"
            },
            {
              "internalType": "uint256",
              "name": "price",
              "type": "uint256"
            },
            {
              "internalType": "bool",
              "name": "sold",
              "type": "bool"
            },
            {
              "internalType": "uint256",
              "name": "tokenId",
              "type": "uint256"
            }
          ],
          "internalType": "struct NFT_Marketplace.NFT[]",
          "name": "",
          "type": "tuple[]"
        }
      ],
      "stateMutability": "view",
      "type": "function"
    }
  ],
  "bytecode": "0x60806040523480156200001157600080fd5b506040518060400160405280600f81526020017f4e46545f4d61726b6574706c61636500000000000000000000000000000000008152506040518060400160405280600381526020017f4e4d50000000000000000000000000000000000000000000000000000000000081525081600090816200008f919062000365565b508060019081620000a1919062000365565b50505033600960006101000a81548173ffffffffffffffffffffffffffffffffffffffff021916908373ffffffffffffffffffffffffffffffffffffffff1602179055506200044c565b600081519050919050565b7f4e487b7100000000000000000000000000000000000000000000000000000000600052604160045260246000fd5b7f4e487b7100000000000000000000000000000000000000000000000000000000600052602260045260246000fd5b600060028204905060018216806200016d57607f821691505b60208210810362000183576200018262000125565b5b50919050565b60008190508160005260206000209050919050565b60006020601f8301049050919050565b600082821b905092915050565b600060088302620001ed7fffffffffffffffffffffffffffffffffffffffffffffffffffffffffffffffff82620001ae565b620001f98683620001ae565b95508019841693508086168417925050509392505050565b6000819050919050565b6000819050919050565b600062000246620002406200023a8462000211565b6200021b565b62000211565b9050919050565b6000819050919050565b620002628362000225565b6200027a62000271826200024d565b848454620001bb565b825550505050565b600090565b6200029162000282565b6200029e81848462000257565b505050565b5b81811015620002c657620002ba60008262000287565b600181019050620002a4565b5050565b601f8211156200031557620002df8162000189565b620002ea846200019e565b81016020851015620002fa578190505b6200031262000309856200019e565b830182620002a3565b50505b505050565b600082821c905092915050565b60006200033a600019846008026200031a565b1980831691505092915050565b600062000355838362000327565b9150826002028217905092915050565b6200037082620000eb565b67ffffffffffffffff8111156200038c576200038b620000f6565b5b62000398825462000154565b620003a5828285620002ca565b600060209050601f831160018114620003dd5760008415620003c8578287015190505b620003d4858262000347565b86555062000444565b601f198416620003ed8662000189565b60005b828110156200041757848901518255600182019150602085019450602081019050620003f0565b8683101562000437578489015162000433601f89168262000327565b8355505b6001600288020188555050505b505050505050565b613e80806200045c6000396000f3fe6080604052600436106101145760003560e01c806370a08231116100a0578063b88d4fde11610064578063b88d4fde146103e9578063c87b56dd14610412578063e985e9c51461044f578063ee9cdfb31461048c578063f2b8aa6f146104a857610114565b806370a08231146102de57806372b3b6201461031b5780637bf0989a1461035857806395d89b4114610395578063a22cb465146103c057610114565b8063081812fc116100e7578063081812fc146101e9578063095ea7b31461022657806323b872dd1461024f57806342842e0e146102785780636352211e146102a157610114565b806301ffc9a714610119578063043a2df414610156578063051d2b6b1461019357806306fdde03146101be575b600080fd5b34801561012557600080fd5b50610140600480360381019061013b9190612760565b6104d3565b60405161014d91906127a8565b60405180910390f35b34801561016257600080fd5b5061017d600480360381019061017891906127f9565b610534565b60405161018a91906128ed565b60405180910390f35b34801561019f57600080fd5b506101a86106b5565b6040516101b59190612a1f565b60405180910390f35b3480156101ca57600080fd5b506101d3610970565b6040516101e09190612ad1565b60405180910390f35b3480156101f557600080fd5b50610210600480360381019061020b91906127f9565b610a02565b60405161021d9190612b02565b60405180910390f35b34801561023257600080fd5b5061024d60048036038101906102489190612b49565b610a48565b005b34801561025b57600080fd5b5061027660048036038101906102719190612b89565b610b5f565b005b34801561028457600080fd5b5061029f600480360381019061029a9190612b89565b610bbf565b005b3480156102ad57600080fd5b506102c860048036038101906102c391906127f9565b610bdf565b6040516102d59190612b02565b60405180910390f35b3480156102ea57600080fd5b5061030560048036038101906103009190612bdc565b610c65565b6040516103129190612c18565b60405180910390f35b34801561032757600080fd5b50610342600480360381019061033d9190612d68565b610d1c565b60405161034f9190612c18565b60405180910390f35b34801561036457600080fd5b5061037f600480360381019061037a91906127f9565b610d5d565b60405161038c9190612c18565b60405180910390f35b3480156103a157600080fd5b506103aa610df6565b6040516103b79190612ad1565b60405180910390f35b3480156103cc57600080fd5b506103e760048036038101906103e29190612df0565b610e88565b005b3480156103f557600080fd5b50610410600480360381019061040b9190612ed1565b610e9e565b005b34801561041e57600080fd5b50610439600480360381019061043491906127f9565b610f00565b6040516104469190612ad1565b60405180910390f35b34801561045b57600080fd5b5061047660048036038101906104719190612f54565b611012565b60405161048391906127a8565b60405180910390f35b6104a660048036038101906104a191906127f9565b6110a6565b005b3480156104b457600080fd5b506104bd6113fd565b6040516104ca9190612a1f565b60405180910390f35b6000634906490660e01b7bffffffffffffffffffffffffffffffffffffffffffffffffffffffff1916827bffffffffffffffffffffffffffffffffffffffffffffffffffffffff1916148061052d575061052c826115a4565b5b9050919050565b61053c612697565b81600073ffffffffffffffffffffffffffffffffffffffff1661055e82611686565b73ffffffffffffffffffffffffffffffffffffffff16036105b4576040517f08c379a00000000000000000000000000000000000000000000000000000000081526004016105ab90613006565b60405180910390fd5b600a60008481526020019081526020016000206040518060a00160405290816000820160009054906101000a900473ffffffffffffffffffffffffffffffffffffffff1673ffffffffffffffffffffffffffffffffffffffff1673ffffffffffffffffffffffffffffffffffffffff1681526020016001820160009054906101000a900473ffffffffffffffffffffffffffffffffffffffff1673ffffffffffffffffffffffffffffffffffffffff1673ffffffffffffffffffffffffffffffffffffffff168152602001600282015481526020016003820160009054906101000a900460ff16151515158152602001600482015481525050915050919050565b606060006106c360076116c3565b90506000805b8281101561075c573373ffffffffffffffffffffffffffffffffffffffff16600a600083815260200190815260200160002060000160009054906101000a900473ffffffffffffffffffffffffffffffffffffffff1673ffffffffffffffffffffffffffffffffffffffff160361074957818061074590613055565b9250505b808061075490613055565b9150506106c9565b5060008167ffffffffffffffff81111561077957610778612c3d565b5b6040519080825280602002602001820160405280156107b257816020015b61079f612697565b8152602001906001900390816107975790505b5090506000915060005b83811015610966573373ffffffffffffffffffffffffffffffffffffffff16600a600083815260200190815260200160002060000160009054906101000a900473ffffffffffffffffffffffffffffffffffffffff1673ffffffffffffffffffffffffffffffffffffffff160361095357600a60008281526020019081526020016000206040518060a00160405290816000820160009054906101000a900473ffffffffffffffffffffffffffffffffffffffff1673ffffffffffffffffffffffffffffffffffffffff1673ffffffffffffffffffffffffffffffffffffffff1681526020016001820160009054906101000a900473ffffffffffffffffffffffffffffffffffffffff1673ffffffffffffffffffffffffffffffffffffffff1673ffffffffffffffffffffffffffffffffffffffff168152602001600282015481526020016003820160009054906101000a900460ff161515151581526020016004820154815250508284815181106109395761093861309d565b5b6020026020010181905250828061094f90613055565b9350505b808061095e90613055565b9150506107bc565b5080935050505090565b60606000805461097f906130fb565b80601f01602080910402602001604051908101604052809291908181526020018280546109ab906130fb565b80156109f85780601f106109cd576101008083540402835291602001916109f8565b820191906000526020600020905b8154815290600101906020018083116109db57829003601f168201915b5050505050905090565b6000610a0d826116d1565b6004600083815260200190815260200160002060009054906101000a900473ffffffffffffffffffffffffffffffffffffffff169050919050565b6000610a5382610bdf565b90508073ffffffffffffffffffffffffffffffffffffffff168373ffffffffffffffffffffffffffffffffffffffff1603610ac3576040517f08c379a0000000000000000000000000000000000000000000000000000000008152600401610aba9061319e565b60405180910390fd5b8073ffffffffffffffffffffffffffffffffffffffff16610ae261171c565b73ffffffffffffffffffffffffffffffffffffffff161480610b115750610b1081610b0b61171c565b611012565b5b610b50576040517f08c379a0000000000000000000000000000000000000000000000000000000008152600401610b4790613230565b60405180910390fd5b610b5a8383611724565b505050565b610b70610b6a61171c565b826117dd565b610baf576040517f08c379a0000000000000000000000000000000000000000000000000000000008152600401610ba6906132c2565b60405180910390fd5b610bba838383611872565b505050565b610bda83838360405180602001604052806000815250610e9e565b505050565b600080610beb83611686565b9050600073ffffffffffffffffffffffffffffffffffffffff168173ffffffffffffffffffffffffffffffffffffffff1603610c5c576040517f08c379a0000000000000000000000000000000000000000000000000000000008152600401610c539061332e565b60405180910390fd5b80915050919050565b60008073ffffffffffffffffffffffffffffffffffffffff168273ffffffffffffffffffffffffffffffffffffffff1603610cd5576040517f08c379a0000000000000000000000000000000000000000000000000000000008152600401610ccc906133c0565b60405180910390fd5b600360008373ffffffffffffffffffffffffffffffffffffffff1673ffffffffffffffffffffffffffffffffffffffff168152602001908152602001600020549050919050565b600080610d2960076116c3565b9050610d356007611b6b565b610d3f3382611b81565b610d498185611d9e565b610d538184611e42565b8091505092915050565b600081600073ffffffffffffffffffffffffffffffffffffffff16610d8182611686565b73ffffffffffffffffffffffffffffffffffffffff1603610dd7576040517f08c379a0000000000000000000000000000000000000000000000000000000008152600401610dce90613006565b60405180910390fd5b600a600084815260200190815260200160002060020154915050919050565b606060018054610e05906130fb565b80601f0160208091040260200160405190810160405280929190818152602001828054610e31906130fb565b8015610e7e5780601f10610e5357610100808354040283529160200191610e7e565b820191906000526020600020905b815481529060010190602001808311610e6157829003601f168201915b5050505050905090565b610e9a610e9361171c565b8383611fce565b5050565b610eaf610ea961171c565b836117dd565b610eee576040517f08c379a0000000000000000000000000000000000000000000000000000000008152600401610ee5906132c2565b60405180910390fd5b610efa8484848461213a565b50505050565b6060610f0b826116d1565b6000600660008481526020019081526020016000208054610f2b906130fb565b80601f0160208091040260200160405190810160405280929190818152602001828054610f57906130fb565b8015610fa45780601f10610f7957610100808354040283529160200191610fa4565b820191906000526020600020905b815481529060010190602001808311610f8757829003601f168201915b505050505090506000610fb5612196565b90506000815103610fca57819250505061100d565b600082511115610fff578082604051602001610fe792919061341c565b6040516020818303038152906040529250505061100d565b611008846121ad565b925050505b919050565b6000600560008473ffffffffffffffffffffffffffffffffffffffff1673ffffffffffffffffffffffffffffffffffffffff16815260200190815260200160002060008373ffffffffffffffffffffffffffffffffffffffff1673ffffffffffffffffffffffffffffffffffffffff16815260200190815260200160002060009054906101000a900460ff16905092915050565b80600073ffffffffffffffffffffffffffffffffffffffff166110c882611686565b73ffffffffffffffffffffffffffffffffffffffff160361111e576040517f08c379a000000000000000000000000000000000000000000000000000000000815260040161111590613006565b60405180910390fd5b600a600083815260200190815260200160002060030160009054906101000a900460ff1615611182576040517f08c379a00000000000000000000000000000000000000000000000000000000081526004016111799061348c565b60405180910390fd5b6000600a60008481526020019081526020016000206002015490506000600a600085815260200190815260200160002060010160009054906101000a900473ffffffffffffffffffffffffffffffffffffffff16905081341461121a576040517f08c379a0000000000000000000000000000000000000000000000000000000008152600401611211906134f8565b60405180910390fd5b33600a600086815260200190815260200160002060000160006101000a81548173ffffffffffffffffffffffffffffffffffffffff021916908373ffffffffffffffffffffffffffffffffffffffff1602179055506000600a600086815260200190815260200160002060010160006101000a81548173ffffffffffffffffffffffffffffffffffffffff021916908373ffffffffffffffffffffffffffffffffffffffff1602179055506001600a600086815260200190815260200160002060030160006101000a81548160ff0219169083151502179055506112fe6008611b6b565b60008173ffffffffffffffffffffffffffffffffffffffff163460405161132490613549565b60006040518083038185875af1925050503d8060008114611361576040519150601f19603f3d011682016040523d82523d6000602084013e611366565b606091505b50509050806113aa576040517f08c379a00000000000000000000000000000000000000000000000000000000081526004016113a1906135aa565b60405180910390fd5b6113b5303387611872565b7f6abf8fea1f4c585bf426b0fdbd54c0f004a746a4b6dcb76752a2d5d268f8730b853360008660016040516113ee959493929190613616565b60405180910390a15050505050565b6060600061140b60076116c3565b905060008167ffffffffffffffff81111561142957611428612c3d565b5b60405190808252806020026020018201604052801561146257816020015b61144f612697565b8152602001906001900390816114475790505b50905060005b815181101561159b57600a60008281526020019081526020016000206040518060a00160405290816000820160009054906101000a900473ffffffffffffffffffffffffffffffffffffffff1673ffffffffffffffffffffffffffffffffffffffff1673ffffffffffffffffffffffffffffffffffffffff1681526020016001820160009054906101000a900473ffffffffffffffffffffffffffffffffffffffff1673ffffffffffffffffffffffffffffffffffffffff1673ffffffffffffffffffffffffffffffffffffffff168152602001600282015481526020016003820160009054906101000a900460ff1615151515815260200160048201548152505082828151811061157d5761157c61309d565b5b6020026020010181905250808061159390613055565b915050611468565b50809250505090565b60007f80ac58cd000000000000000000000000000000000000000000000000000000007bffffffffffffffffffffffffffffffffffffffffffffffffffffffff1916827bffffffffffffffffffffffffffffffffffffffffffffffffffffffff1916148061166f57507f5b5e139f000000000000000000000000000000000000000000000000000000007bffffffffffffffffffffffffffffffffffffffffffffffffffffffff1916827bffffffffffffffffffffffffffffffffffffffffffffffffffffffff1916145b8061167f575061167e82612215565b5b9050919050565b60006002600083815260200190815260200160002060009054906101000a900473ffffffffffffffffffffffffffffffffffffffff169050919050565b600081600001549050919050565b6116da8161227f565b611719576040517f08c379a00000000000000000000000000000000000000000000000000000000081526004016117109061332e565b60405180910390fd5b50565b600033905090565b816004600083815260200190815260200160002060006101000a81548173ffffffffffffffffffffffffffffffffffffffff021916908373ffffffffffffffffffffffffffffffffffffffff160217905550808273ffffffffffffffffffffffffffffffffffffffff1661179783610bdf565b73ffffffffffffffffffffffffffffffffffffffff167f8c5be1e5ebec7d5bd14f71427d1e84f3dd0314c0f7b2291e5b200ac8c7c3b92560405160405180910390a45050565b6000806117e983610bdf565b90508073ffffffffffffffffffffffffffffffffffffffff168473ffffffffffffffffffffffffffffffffffffffff16148061182b575061182a8185611012565b5b8061186957508373ffffffffffffffffffffffffffffffffffffffff1661185184610a02565b73ffffffffffffffffffffffffffffffffffffffff16145b91505092915050565b8273ffffffffffffffffffffffffffffffffffffffff1661189282610bdf565b73ffffffffffffffffffffffffffffffffffffffff16146118e8576040517f08c379a00000000000000000000000000000000000000000000000000000000081526004016118df906136ee565b60405180910390fd5b600073ffffffffffffffffffffffffffffffffffffffff168273ffffffffffffffffffffffffffffffffffffffff1603611957576040517f08c379a000000000000000000000000000000000000000000000000000000000815260040161194e90613780565b60405180910390fd5b61196483838360016122c0565b8273ffffffffffffffffffffffffffffffffffffffff1661198482610bdf565b73ffffffffffffffffffffffffffffffffffffffff16146119da576040517f08c379a00000000000000000000000000000000000000000000000000000000081526004016119d1906136ee565b60405180910390fd5b6004600082815260200190815260200160002060006101000a81549073ffffffffffffffffffffffffffffffffffffffff02191690556001600360008573ffffffffffffffffffffffffffffffffffffffff1673ffffffffffffffffffffffffffffffffffffffff168152602001908152602001600020600082825403925050819055506001600360008473ffffffffffffffffffffffffffffffffffffffff1673ffffffffffffffffffffffffffffffffffffffff16815260200190815260200160002060008282540192505081905550816002600083815260200190815260200160002060006101000a81548173ffffffffffffffffffffffffffffffffffffffff021916908373ffffffffffffffffffffffffffffffffffffffff160217905550808273ffffffffffffffffffffffffffffffffffffffff168473ffffffffffffffffffffffffffffffffffffffff167fddf252ad1be2c89b69c2b068fc378daa952ba7f163c4a11628f55a4df523b3ef60405160405180910390a4611b6683838360016122c6565b505050565b6001816000016000828254019250508190555050565b600073ffffffffffffffffffffffffffffffffffffffff168273ffffffffffffffffffffffffffffffffffffffff1603611bf0576040517f08c379a0000000000000000000000000000000000000000000000000000000008152600401611be7906137ec565b60405180910390fd5b611bf98161227f565b15611c39576040517f08c379a0000000000000000000000000000000000000000000000000000000008152600401611c3090613858565b60405180910390fd5b611c476000838360016122c0565b611c508161227f565b15611c90576040517f08c379a0000000000000000000000000000000000000000000000000000000008152600401611c8790613858565b60405180910390fd5b6001600360008473ffffffffffffffffffffffffffffffffffffffff1673ffffffffffffffffffffffffffffffffffffffff16815260200190815260200160002060008282540192505081905550816002600083815260200190815260200160002060006101000a81548173ffffffffffffffffffffffffffffffffffffffff021916908373ffffffffffffffffffffffffffffffffffffffff160217905550808273ffffffffffffffffffffffffffffffffffffffff16600073ffffffffffffffffffffffffffffffffffffffff167fddf252ad1be2c89b69c2b068fc378daa952ba7f163c4a11628f55a4df523b3ef60405160405180910390a4611d9a6000838360016122c6565b5050565b611da78261227f565b611de6576040517f08c379a0000000000000000000000000000000000000000000000000000000008152600401611ddd906138ea565b60405180910390fd5b80600660008481526020019081526020016000209081611e069190613ab6565b507ff8e1a15aba9398e019f0b49df1a4fde98ee17ae345cb5f6b5e2c27f5033e8ce782604051611e369190612c18565b60405180910390a15050565b6000611e4e60076116c3565b90506040518060a001604052803073ffffffffffffffffffffffffffffffffffffffff1681526020013373ffffffffffffffffffffffffffffffffffffffff16815260200183815260200160001515815260200184815250600a600083815260200190815260200160002060008201518160000160006101000a81548173ffffffffffffffffffffffffffffffffffffffff021916908373ffffffffffffffffffffffffffffffffffffffff16021790555060208201518160010160006101000a81548173ffffffffffffffffffffffffffffffffffffffff021916908373ffffffffffffffffffffffffffffffffffffffff1602179055506040820151816002015560608201518160030160006101000a81548160ff02191690831515021790555060808201518160040155905050611f89333085611872565b7f6abf8fea1f4c585bf426b0fdbd54c0f004a746a4b6dcb76752a2d5d268f8730b833033856000604051611fc1959493929190613bd4565b60405180910390a1505050565b8173ffffffffffffffffffffffffffffffffffffffff168373ffffffffffffffffffffffffffffffffffffffff160361203c576040517f08c379a000000000000000000000000000000000000000000000000000000000815260040161203390613c86565b60405180910390fd5b80600560008573ffffffffffffffffffffffffffffffffffffffff1673ffffffffffffffffffffffffffffffffffffffff16815260200190815260200160002060008473ffffffffffffffffffffffffffffffffffffffff1673ffffffffffffffffffffffffffffffffffffffff16815260200190815260200160002060006101000a81548160ff0219169083151502179055508173ffffffffffffffffffffffffffffffffffffffff168373ffffffffffffffffffffffffffffffffffffffff167f17307eab39ab6107e8899845ad3d59bd9653f200f220920489ca2b5937696c318360405161212d91906127a8565b60405180910390a3505050565b612145848484611872565b612151848484846122cc565b612190576040517f08c379a000000000000000000000000000000000000000000000000000000000815260040161218790613d18565b60405180910390fd5b50505050565b606060405180602001604052806000815250905090565b60606121b8826116d1565b60006121c2612196565b905060008151116121e2576040518060200160405280600081525061220d565b806121ec84612453565b6040516020016121fd92919061341c565b6040516020818303038152906040525b915050919050565b60007f01ffc9a7000000000000000000000000000000000000000000000000000000007bffffffffffffffffffffffffffffffffffffffffffffffffffffffff1916827bffffffffffffffffffffffffffffffffffffffffffffffffffffffff1916149050919050565b60008073ffffffffffffffffffffffffffffffffffffffff166122a183611686565b73ffffffffffffffffffffffffffffffffffffffff1614159050919050565b50505050565b50505050565b60006122ed8473ffffffffffffffffffffffffffffffffffffffff16612521565b15612446578373ffffffffffffffffffffffffffffffffffffffff1663150b7a0261231661171c565b8786866040518563ffffffff1660e01b81526004016123389493929190613d8d565b6020604051808303816000875af192505050801561237457506040513d601f19601f820116820180604052508101906123719190613dee565b60015b6123f6573d80600081146123a4576040519150601f19603f3d011682016040523d82523d6000602084013e6123a9565b606091505b5060008151036123ee576040517f08c379a00000000000000000000000000000000000000000000000000000000081526004016123e590613d18565b60405180910390fd5b805181602001fd5b63150b7a0260e01b7bffffffffffffffffffffffffffffffffffffffffffffffffffffffff1916817bffffffffffffffffffffffffffffffffffffffffffffffffffffffff19161491505061244b565b600190505b949350505050565b60606000600161246284612544565b01905060008167ffffffffffffffff81111561248157612480612c3d565b5b6040519080825280601f01601f1916602001820160405280156124b35781602001600182028036833780820191505090505b509050600082602001820190505b600115612516578080600190039150507f3031323334353637383961626364656600000000000000000000000000000000600a86061a8153600a858161250a57612509613e1b565b5b049450600085036124c1575b819350505050919050565b6000808273ffffffffffffffffffffffffffffffffffffffff163b119050919050565b600080600090507a184f03e93ff9f4daa797ed6e38ed64bf6a1f01000000000000000083106125a2577a184f03e93ff9f4daa797ed6e38ed64bf6a1f010000000000000000838161259857612597613e1b565b5b0492506040810190505b6d04ee2d6d415b85acef810000000083106125df576d04ee2d6d415b85acef810000000083816125d5576125d4613e1b565b5b0492506020810190505b662386f26fc10000831061260e57662386f26fc10000838161260457612603613e1b565b5b0492506010810190505b6305f5e1008310612637576305f5e100838161262d5761262c613e1b565b5b0492506008810190505b612710831061265c57612710838161265257612651613e1b565b5b0492506004810190505b6064831061267f576064838161267557612674613e1b565b5b0492506002810190505b600a831061268e576001810190505b80915050919050565b6040518060a00160405280600073ffffffffffffffffffffffffffffffffffffffff168152602001600073ffffffffffffffffffffffffffffffffffffffff16815260200160008152602001600015158152602001600081525090565b6000604051905090565b600080fd5b600080fd5b60007fffffffff0000000000000000000000000000000000000000000000000000000082169050919050565b61273d81612708565b811461274857600080fd5b50565b60008135905061275a81612734565b92915050565b600060208284031215612776576127756126fe565b5b60006127848482850161274b565b91505092915050565b60008115159050919050565b6127a28161278d565b82525050565b60006020820190506127bd6000830184612799565b92915050565b6000819050919050565b6127d6816127c3565b81146127e157600080fd5b50565b6000813590506127f3816127cd565b92915050565b60006020828403121561280f5761280e6126fe565b5b600061281d848285016127e4565b91505092915050565b600073ffffffffffffffffffffffffffffffffffffffff82169050919050565b600061285182612826565b9050919050565b61286181612846565b82525050565b612870816127c3565b82525050565b61287f8161278d565b82525050565b60a08201600082015161289b6000850182612858565b5060208201516128ae6020850182612858565b5060408201516128c16040850182612867565b5060608201516128d46060850182612876565b5060808201516128e76080850182612867565b50505050565b600060a0820190506129026000830184612885565b92915050565b600081519050919050565b600082825260208201905092915050565b6000819050602082019050919050565b60a08201600082015161294a6000850182612858565b50602082015161295d6020850182612858565b5060408201516129706040850182612867565b5060608201516129836060850182612876565b5060808201516129966080850182612867565b50505050565b60006129a88383612934565b60a08301905092915050565b6000602082019050919050565b60006129cc82612908565b6129d68185612913565b93506129e183612924565b8060005b83811015612a125781516129f9888261299c565b9750612a04836129b4565b9250506001810190506129e5565b5085935050505092915050565b60006020820190508181036000830152612a3981846129c1565b905092915050565b600081519050919050565b600082825260208201905092915050565b60005b83811015612a7b578082015181840152602081019050612a60565b60008484015250505050565b6000601f19601f8301169050919050565b6000612aa382612a41565b612aad8185612a4c565b9350612abd818560208601612a5d565b612ac681612a87565b840191505092915050565b60006020820190508181036000830152612aeb8184612a98565b905092915050565b612afc81612846565b82525050565b6000602082019050612b176000830184612af3565b92915050565b612b2681612846565b8114612b3157600080fd5b50565b600081359050612b4381612b1d565b92915050565b60008060408385031215612b6057612b5f6126fe565b5b6000612b6e85828601612b34565b9250506020612b7f858286016127e4565b9150509250929050565b600080600060608486031215612ba257612ba16126fe565b5b6000612bb086828701612b34565b9350506020612bc186828701612b34565b9250506040612bd2868287016127e4565b9150509250925092565b600060208284031215612bf257612bf16126fe565b5b6000612c0084828501612b34565b91505092915050565b612c12816127c3565b82525050565b6000602082019050612c2d6000830184612c09565b92915050565b600080fd5b600080fd5b7f4e487b7100000000000000000000000000000000000000000000000000000000600052604160045260246000fd5b612c7582612a87565b810181811067ffffffffffffffff82111715612c9457612c93612c3d565b5b80604052505050565b6000612ca76126f4565b9050612cb38282612c6c565b919050565b600067ffffffffffffffff821115612cd357612cd2612c3d565b5b612cdc82612a87565b9050602081019050919050565b82818337600083830152505050565b6000612d0b612d0684612cb8565b612c9d565b905082815260208101848484011115612d2757612d26612c38565b5b612d32848285612ce9565b509392505050565b600082601f830112612d4f57612d4e612c33565b5b8135612d5f848260208601612cf8565b91505092915050565b60008060408385031215612d7f57612d7e6126fe565b5b600083013567ffffffffffffffff811115612d9d57612d9c612703565b5b612da985828601612d3a565b9250506020612dba858286016127e4565b9150509250929050565b612dcd8161278d565b8114612dd857600080fd5b50565b600081359050612dea81612dc4565b92915050565b60008060408385031215612e0757612e066126fe565b5b6000612e1585828601612b34565b9250506020612e2685828601612ddb565b9150509250929050565b600067ffffffffffffffff821115612e4b57612e4a612c3d565b5b612e5482612a87565b9050602081019050919050565b6000612e74612e6f84612e30565b612c9d565b905082815260208101848484011115612e9057612e8f612c38565b5b612e9b848285612ce9565b509392505050565b600082601f830112612eb857612eb7612c33565b5b8135612ec8848260208601612e61565b91505092915050565b60008060008060808587031215612eeb57612eea6126fe565b5b6000612ef987828801612b34565b9450506020612f0a87828801612b34565b9350506040612f1b878288016127e4565b925050606085013567ffffffffffffffff811115612f3c57612f3b612703565b5b612f4887828801612ea3565b91505092959194509250565b60008060408385031215612f6b57612f6a6126fe565b5b6000612f7985828601612b34565b9250506020612f8a85828601612b34565b9150509250929050565b7f4e465420776974682073706563696669656420746f6b656e496420646f65736e60008201527f27742065786973742e0000000000000000000000000000000000000000000000602082015250565b6000612ff0602983612a4c565b9150612ffb82612f94565b604082019050919050565b6000602082019050818103600083015261301f81612fe3565b9050919050565b7f4e487b7100000000000000000000000000000000000000000000000000000000600052601160045260246000fd5b6000613060826127c3565b91507fffffffffffffffffffffffffffffffffffffffffffffffffffffffffffffffff820361309257613091613026565b5b600182019050919050565b7f4e487b7100000000000000000000000000000000000000000000000000000000600052603260045260246000fd5b7f4e487b7100000000000000000000000000000000000000000000000000000000600052602260045260246000fd5b6000600282049050600182168061311357607f821691505b602082108103613126576131256130cc565b5b50919050565b7f4552433732313a20617070726f76616c20746f2063757272656e74206f776e6560008201527f7200000000000000000000000000000000000000000000000000000000000000602082015250565b6000613188602183612a4c565b91506131938261312c565b604082019050919050565b600060208201905081810360008301526131b78161317b565b9050919050565b7f4552433732313a20617070726f76652063616c6c6572206973206e6f7420746f60008201527f6b656e206f776e6572206f7220617070726f76656420666f7220616c6c000000602082015250565b600061321a603d83612a4c565b9150613225826131be565b604082019050919050565b600060208201905081810360008301526132498161320d565b9050919050565b7f4552433732313a2063616c6c6572206973206e6f7420746f6b656e206f776e6560008201527f72206f7220617070726f76656400000000000000000000000000000000000000602082015250565b60006132ac602d83612a4c565b91506132b782613250565b604082019050919050565b600060208201905081810360008301526132db8161329f565b9050919050565b7f4552433732313a20696e76616c696420746f6b656e2049440000000000000000600082015250565b6000613318601883612a4c565b9150613323826132e2565b602082019050919050565b600060208201905081810360008301526133478161330b565b9050919050565b7f4552433732313a2061646472657373207a65726f206973206e6f74206120766160008201527f6c6964206f776e65720000000000000000000000000000000000000000000000602082015250565b60006133aa602983612a4c565b91506133b58261334e565b604082019050919050565b600060208201905081810360008301526133d98161339d565b9050919050565b600081905092915050565b60006133f682612a41565b61340081856133e0565b9350613410818560208601612a5d565b80840191505092915050565b600061342882856133eb565b915061343482846133eb565b91508190509392505050565b7f416c726561647920736f6c642e00000000000000000000000000000000000000600082015250565b6000613476600d83612a4c565b915061348182613440565b602082019050919050565b600060208201905081810360008301526134a581613469565b9050919050565b7f696e636f727265637420616d6f756e7400000000000000000000000000000000600082015250565b60006134e2601083612a4c565b91506134ed826134ac565b602082019050919050565b60006020820190508181036000830152613511816134d5565b9050919050565b600081905092915050565b50565b6000613533600083613518565b915061353e82613523565b600082019050919050565b600061355482613526565b9150819050919050565b7f7061796d656e74206661696c6564000000000000000000000000000000000000600082015250565b6000613594600e83612a4c565b915061359f8261355e565b602082019050919050565b600060208201905081810360008301526135c381613587565b9050919050565b7f536f6c64204e4654207375636365737366756c6c790000000000000000000000600082015250565b6000613600601583612a4c565b915061360b826135ca565b602082019050919050565b600060c08201905061362b6000830188612c09565b6136386020830187612af3565b6136456040830186612af3565b6136526060830185612c09565b61365f6080830184612799565b81810360a0830152613670816135f3565b90509695505050505050565b7f4552433732313a207472616e736665722066726f6d20696e636f72726563742060008201527f6f776e6572000000000000000000000000000000000000000000000000000000602082015250565b60006136d8602583612a4c565b91506136e38261367c565b604082019050919050565b60006020820190508181036000830152613707816136cb565b9050919050565b7f4552433732313a207472616e7366657220746f20746865207a65726f2061646460008201527f7265737300000000000000000000000000000000000000000000000000000000602082015250565b600061376a602483612a4c565b91506137758261370e565b604082019050919050565b600060208201905081810360008301526137998161375d565b9050919050565b7f4552433732313a206d696e7420746f20746865207a65726f2061646472657373600082015250565b60006137d6602083612a4c565b91506137e1826137a0565b602082019050919050565b60006020820190508181036000830152613805816137c9565b9050919050565b7f4552433732313a20746f6b656e20616c7265616479206d696e74656400000000600082015250565b6000613842601c83612a4c565b915061384d8261380c565b602082019050919050565b6000602082019050818103600083015261387181613835565b9050919050565b7f45524337323155524953746f726167653a2055524920736574206f66206e6f6e60008201527f6578697374656e7420746f6b656e000000000000000000000000000000000000602082015250565b60006138d4602e83612a4c565b91506138df82613878565b604082019050919050565b60006020820190508181036000830152613903816138c7565b9050919050565b60008190508160005260206000209050919050565b60006020601f8301049050919050565b600082821b905092915050565b60006008830261396c7fffffffffffffffffffffffffffffffffffffffffffffffffffffffffffffffff8261392f565b613976868361392f565b95508019841693508086168417925050509392505050565b6000819050919050565b60006139b36139ae6139a9846127c3565b61398e565b6127c3565b9050919050565b6000819050919050565b6139cd83613998565b6139e16139d9826139ba565b84845461393c565b825550505050565b600090565b6139f66139e9565b613a018184846139c4565b505050565b5b81811015613a2557613a1a6000826139ee565b600181019050613a07565b5050565b601f821115613a6a57613a3b8161390a565b613a448461391f565b81016020851015613a53578190505b613a67613a5f8561391f565b830182613a06565b50505b505050565b600082821c905092915050565b6000613a8d60001984600802613a6f565b1980831691505092915050565b6000613aa68383613a7c565b9150826002028217905092915050565b613abf82612a41565b67ffffffffffffffff811115613ad857613ad7612c3d565b5b613ae282546130fb565b613aed828285613a29565b600060209050601f831160018114613b205760008415613b0e578287015190505b613b188582613a9a565b865550613b80565b601f198416613b2e8661390a565b60005b82811015613b5657848901518255600182019150602085019450602081019050613b31565b86831015613b735784890151613b6f601f891682613a7c565b8355505b6001600288020188555050505b505050505050565b7f4e46542063726561746564207375636365737366756c79000000000000000000600082015250565b6000613bbe601783612a4c565b9150613bc982613b88565b602082019050919050565b600060c082019050613be96000830188612c09565b613bf66020830187612af3565b613c036040830186612af3565b613c106060830185612c09565b613c1d6080830184612799565b81810360a0830152613c2e81613bb1565b90509695505050505050565b7f4552433732313a20617070726f766520746f2063616c6c657200000000000000600082015250565b6000613c70601983612a4c565b9150613c7b82613c3a565b602082019050919050565b60006020820190508181036000830152613c9f81613c63565b9050919050565b7f4552433732313a207472616e7366657220746f206e6f6e20455243373231526560008201527f63656976657220696d706c656d656e7465720000000000000000000000000000602082015250565b6000613d02603283612a4c565b9150613d0d82613ca6565b604082019050919050565b60006020820190508181036000830152613d3181613cf5565b9050919050565b600081519050919050565b600082825260208201905092915050565b6000613d5f82613d38565b613d698185613d43565b9350613d79818560208601612a5d565b613d8281612a87565b840191505092915050565b6000608082019050613da26000830187612af3565b613daf6020830186612af3565b613dbc6040830185612c09565b8181036060830152613dce8184613d54565b905095945050505050565b600081519050613de881612734565b92915050565b600060208284031215613e0457613e036126fe565b5b6000613e1284828501613dd9565b91505092915050565b7f4e487b7100000000000000000000000000000000000000000000000000000000600052601260045260246000fdfea2646970667358221220f43421aa74e460e0797f94d89723f5147d23c148bcd1c53f133ad73b6c6276b364736f6c63430008130033",
  "linkReferences": {},
  "deployedLinkReferences": {}
}